{
  "_format": "hh-sol-artifact-1",
  "contractName": "MarketSentiment",
  "sourceName": "contracts/MarketSentiment.sol",
  "abi": [
    {
      "inputs": [],
      "stateMutability": "nonpayable",
      "type": "constructor"
    },
    {
      "anonymous": false,
      "inputs": [
        {
          "indexed": false,
          "internalType": "string",
          "name": "_tickerName",
          "type": "string"
        },
        {
          "indexed": false,
          "internalType": "uint256",
          "name": "voteUp",
          "type": "uint256"
        },
        {
          "indexed": false,
          "internalType": "uint256",
          "name": "voteDown",
          "type": "uint256"
        }
      ],
      "name": "tickerUpdate",
      "type": "event"
    },
    {
      "inputs": [
        {
          "internalType": "string",
          "name": "_tickerName",
          "type": "string"
        }
      ],
      "name": "addTicker",
      "outputs": [],
      "stateMutability": "nonpayable",
      "type": "function"
    },
    {
      "inputs": [
        {
          "internalType": "string",
          "name": "",
          "type": "string"
        }
      ],
      "name": "allTickers",
      "outputs": [
        {
          "internalType": "uint256",
          "name": "",
          "type": "uint256"
        }
      ],
      "stateMutability": "view",
      "type": "function"
    },
    {
      "inputs": [
        {
          "internalType": "string",
          "name": "_tickerName",
          "type": "string"
        }
      ],
      "name": "getVotes",
      "outputs": [
        {
          "internalType": "uint256",
          "name": "votesUp",
          "type": "uint256"
        },
        {
          "internalType": "uint256",
          "name": "votesDown",
          "type": "uint256"
        },
        {
          "internalType": "uint256",
          "name": "totalVotes",
          "type": "uint256"
        }
      ],
      "stateMutability": "view",
      "type": "function"
    },
    {
      "inputs": [],
      "name": "owner",
      "outputs": [
        {
          "internalType": "address",
          "name": "",
          "type": "address"
        }
      ],
      "stateMutability": "view",
      "type": "function"
    },
    {
      "inputs": [
        {
          "internalType": "string",
          "name": "",
          "type": "string"
        }
      ],
      "name": "tickers",
      "outputs": [
        {
          "internalType": "uint256",
          "name": "votesUp",
          "type": "uint256"
        },
        {
          "internalType": "uint256",
          "name": "votesDown",
          "type": "uint256"
        }
      ],
      "stateMutability": "view",
      "type": "function"
    },
    {
      "inputs": [
        {
          "internalType": "bool",
          "name": "_vote",
          "type": "bool"
        },
        {
          "internalType": "string",
          "name": "_tickerName",
          "type": "string"
        }
      ],
      "name": "vote",
      "outputs": [],
      "stateMutability": "nonpayable",
      "type": "function"
    }
  ],
  "bytecode": "0x608060405234801561001057600080fd5b50336000806101000a81548173ffffffffffffffffffffffffffffffffffffffff021916908373ffffffffffffffffffffffffffffffffffffffff160217905550610dd3806100606000396000f3fe608060405234801561001057600080fd5b50600436106100625760003560e01c80631953355b146100675780635f6449ad14610098578063805265e5146100b45780638da5cb5b146100e657806397131e1d14610104578063efcee86914610134575b600080fd5b610081600480360381019061007c9190610783565b610150565b60405161008f9291906107e5565b60405180910390f35b6100b260048036038101906100ad9190610783565b61018a565b005b6100ce60048036038101906100c99190610783565b6102a0565b6040516100dd9392919061080e565b60405180910390f35b6100ee610363565b6040516100fb9190610886565b60405180910390f35b61011e60048036038101906101199190610783565b610387565b60405161012b91906108a1565b60405180910390f35b61014e600480360381019061014991906108f4565b6103b5565b005b6001818051602081018201805184825260208301602085012081835280955050505050506000915090508060000154908060010154905082565b60008054906101000a900473ffffffffffffffffffffffffffffffffffffffff1673ffffffffffffffffffffffffffffffffffffffff163373ffffffffffffffffffffffffffffffffffffffff1614610218576040517f08c379a000000000000000000000000000000000000000000000000000000000815260040161020f906109ad565b60405180910390fd5b600160028260405161022a9190610a3e565b90815260200160405180910390205403610279576040517f08c379a000000000000000000000000000000000000000000000000000000000815260040161027090610aa1565b60405180910390fd5b600160028260405161028b9190610a3e565b90815260200160405180910390208190555050565b600080600060016002856040516102b79190610a3e565b90815260200160405180910390205414610306576040517f08c379a00000000000000000000000000000000000000000000000000000000081526004016102fd90610b0d565b60405180910390fd5b6001846040516103169190610a3e565b908152602001604051809103902060000154925060018460405161033a9190610a3e565b9081526020016040518091039020600101549150818361035a9190610b5c565b90509193909250565b60008054906101000a900473ffffffffffffffffffffffffffffffffffffffff1681565b6002818051602081018201805184825260208301602085012081835280955050505050506000915090505481565b600015156001826040516103c99190610a3e565b908152602001604051809103902060020160003373ffffffffffffffffffffffffffffffffffffffff1673ffffffffffffffffffffffffffffffffffffffff16815260200190815260200160002060009054906101000a900460ff16151514610467576040517f08c379a000000000000000000000000000000000000000000000000000000000815260040161045e90610bdc565b60405180910390fd5b60011515821515036104ed57600180826040516104849190610a3e565b908152602001604051809103902060000160008282546104a49190610b5c565b925050819055507f1a4d592d55f4daba1e12de7a8fcbb2487fa015de00452dcb890e1040550a53b881600160006040516104e093929190610cb5565b60405180910390a16105af565b6000151582151503610573577f1a4d592d55f4daba1e12de7a8fcbb2487fa015de00452dcb890e1040550a53b8816000600160405161052e93929190610cf3565b60405180910390a1600180826040516105479190610a3e565b908152602001604051809103902060010160008282546105679190610b5c565b925050819055506105ae565b6040517f08c379a00000000000000000000000000000000000000000000000000000000081526004016105a590610d7d565b60405180910390fd5b5b600180826040516105c09190610a3e565b908152602001604051809103902060020160003373ffffffffffffffffffffffffffffffffffffffff1673ffffffffffffffffffffffffffffffffffffffff16815260200190815260200160002060006101000a81548160ff0219169083151502179055505050565b6000604051905090565b600080fd5b600080fd5b600080fd5b600080fd5b6000601f19601f8301169050919050565b7f4e487b7100000000000000000000000000000000000000000000000000000000600052604160045260246000fd5b61069082610647565b810181811067ffffffffffffffff821117156106af576106ae610658565b5b80604052505050565b60006106c2610629565b90506106ce8282610687565b919050565b600067ffffffffffffffff8211156106ee576106ed610658565b5b6106f782610647565b9050602081019050919050565b82818337600083830152505050565b6000610726610721846106d3565b6106b8565b90508281526020810184848401111561074257610741610642565b5b61074d848285610704565b509392505050565b600082601f83011261076a5761076961063d565b5b813561077a848260208601610713565b91505092915050565b60006020828403121561079957610798610633565b5b600082013567ffffffffffffffff8111156107b7576107b6610638565b5b6107c384828501610755565b91505092915050565b6000819050919050565b6107df816107cc565b82525050565b60006040820190506107fa60008301856107d6565b61080760208301846107d6565b9392505050565b600060608201905061082360008301866107d6565b61083060208301856107d6565b61083d60408301846107d6565b949350505050565b600073ffffffffffffffffffffffffffffffffffffffff82169050919050565b600061087082610845565b9050919050565b61088081610865565b82525050565b600060208201905061089b6000830184610877565b92915050565b60006020820190506108b660008301846107d6565b92915050565b60008115159050919050565b6108d1816108bc565b81146108dc57600080fd5b50565b6000813590506108ee816108c8565b92915050565b6000806040838503121561090b5761090a610633565b5b6000610919858286016108df565b925050602083013567ffffffffffffffff81111561093a57610939610638565b5b61094685828601610755565b9150509250929050565b600082825260208201905092915050565b7f43616c6c6572206973206e6f7420746865206f776e6572000000000000000000600082015250565b6000610997601783610950565b91506109a282610961565b602082019050919050565b600060208201905081810360008301526109c68161098a565b9050919050565b600081519050919050565b600081905092915050565b60005b83811015610a015780820151818401526020810190506109e6565b60008484015250505050565b6000610a18826109cd565b610a2281856109d8565b9350610a328185602086016109e3565b80840191505092915050565b6000610a4a8284610a0d565b915081905092915050565b7f45737465207469636b6572207961206578697374650000000000000000000000600082015250565b6000610a8b601583610950565b9150610a9682610a55565b602082019050919050565b60006020820190508181036000830152610aba81610a7e565b9050919050565b7f54686973207469636b657220616c726564792065786973742100000000000000600082015250565b6000610af7601983610950565b9150610b0282610ac1565b602082019050919050565b60006020820190508181036000830152610b2681610aea565b9050919050565b7f4e487b7100000000000000000000000000000000000000000000000000000000600052601160045260246000fd5b6000610b67826107cc565b9150610b72836107cc565b9250828201905080821115610b8a57610b89610b2d565b5b92915050565b7f45737465207573756172696f20796120766f746f212100000000000000000000600082015250565b6000610bc6601683610950565b9150610bd182610b90565b602082019050919050565b60006020820190508181036000830152610bf581610bb9565b9050919050565b6000610c07826109cd565b610c118185610950565b9350610c218185602086016109e3565b610c2a81610647565b840191505092915050565b6000819050919050565b6000819050919050565b6000610c64610c5f610c5a84610c35565b610c3f565b6107cc565b9050919050565b610c7481610c49565b82525050565b6000819050919050565b6000610c9f610c9a610c9584610c7a565b610c3f565b6107cc565b9050919050565b610caf81610c84565b82525050565b60006060820190508181036000830152610ccf8186610bfc565b9050610cde6020830185610c6b565b610ceb6040830184610ca6565b949350505050565b60006060820190508181036000830152610d0d8186610bfc565b9050610d1c6020830185610ca6565b610d296040830184610c6b565b949350505050565b7f57726f6e672063686f6f73650000000000000000000000000000000000000000600082015250565b6000610d67600c83610950565b9150610d7282610d31565b602082019050919050565b60006020820190508181036000830152610d9681610d5a565b905091905056fea26469706673582212207d841ebc2eacf7539be27d038bf9382753d5a8105eff330aa05c5639e80b9e5d64736f6c63430008110033",
  "linkReferences": {},
  "deployedLinkReferences": {}
}